:020000040000FA
:020000004B288B
:040002000034003492
:0800080005280C1C09000F087B
:10001000A0000E08A10010100C1083120313090099
:10002000F930F0000000F00B12280800F100102059
:10003000F10B1728080008151020081110200800DF
:10004000F500F0398800F41888141B201020F50EF4
:100050007508F0398800F41888141B201020080057
:1000600064301620F030F400303088001B2005305A
:1000700016201B2010201B2008121B2028302020B7
:100080000830202001302020063020208030202021
:100090000C302020080083160313880183160313F5
:1000A00087018316031306108614061186110612A3
:1000B0008612061386138312031310108312031380
:1000C00003110310A001A101A201A301A401A50134
:1000D000A601A701A801A901AA01AB016F2816205A
:1000E0001620302090248824F41008302020162078
:1000F0000C30202088240830202016200C302020AE
:1001000088240130E0000230E1000330E2000430D6
:10011000E3000530E4000630E5000730E600083073
:10012000E7000930E8000A30E9000B30EA000C3043
:10013000EB000D30EC000E30ED000F30EE00103013
:10014000EF001130F0001230F1001330F2001430E3
:10015000F3001530F4001630F5001730F6001830B3
:10016000F7003A30A6006430B0000030B1003430FF
:10017000B2000030B3003630B4000030B500383083
:10018000B6000030B7003A30B8000030B9003C305B
:10019000BA000030BB003E30BC000030BD00403033
:1001A000BE000030BF004230C0000030C10044300B
:1001B000C2000030C3004630C4000030C5004830E3
:1001C000C6000030C7004A30C8000030C9004C30BB
:1001D000CA000030CB004E30CC000030CD00503093
:1001E000CE000030CF005230D0000030D10054306B
:1001F000D2000030D3005630D4000030D500583043
:10020000D6000030D7005A30D8000030D9005C301A
:10021000DA000030DB005E30DC000030DD006030F2
:10022000DE000030DF00A6227708E0007608E1005B
:100230007508E2007408E30042228D248D241F29F2
:1002400026233523402446242208B0002308B10089
:10025000E92384241F248D2426233B234024462481
:100260002208B2002308B300E92384241F248D242C
:1002700026234123402446242208B4002308B50045
:10028000E92384241F248D24262347234024462445
:100290002208B6002308B700E92384241F248D24F4
:1002A00026234D23402446242208B8002308B90001
:1002B000E92384241F248D24262353234024462409
:1002C0002208BA002308BB00E92384241F248D24BC
:1002D00026235923402446242208BC002308BD00BD
:1002E000E92384241F248D2426235F2340244624CD
:1002F0002208BE002308BF00E92384241F248D2484
:100300002B236523402446242208C0002308C10073
:10031000E92384241F248D242B236B23402446248B
:100320002208C2002308C300E92384241F248D244B
:100330002B237123402446242208C4002308C5002F
:10034000E92384241F248D242B237723402446244F
:100350002208C6002308C700E92384241F248D2413
:100360002B237D23402446242208C8002308C900EB
:10037000E92384241F248D242B2383234024462413
:100380002208CA002308CB00E92384241F248D24DB
:100390002B238923402446242208CC002308CD00A7
:1003A000E92384241F248D242B238F2340244624D7
:1003B0002208CE002308CF00E92384241F248D24A3
:1003C00030239523402446242208D0002308D1005E
:1003D000E92384241F248D2430239D234024462494
:1003E0002208D2002308D300E92384241F248D246B
:1003F0003023A523402446242208D4002308D50016
:10040000E92384241F248D243023AD234024462453
:100410002208D6002308D700E92384241F248D2432
:100420003023B523402446242208D8002308D900CD
:10043000E92384241F248D243023BD234024462413
:100440002208DA002308DB00E92384241F248D24FA
:100450003023C523402446242208DC002308DD0085
:10046000E92384241F248D243023CD2340244624D3
:100470002208DE002308DF00E92384241F248D24C2
:10048000A622080084240030A700C924F4145530A3
:100490002020603084000008A200E6230C243A30BB
:1004A00020205E3084000008A2000130840700088C
:1004B000A300E92314242030202020302020F4142D
:1004C00055302020613084000008A200E6230C246F
:1004D0003A3020205C3084000008A20001308407FC
:1004E0000008A300E92314244030A707C924F4140A
:1004F00055302020623084000008A200E6230C243E
:100500003A3020205A3084000008A20001308407CD
:100510000008A300E92314242030202020302020CC
:10052000F41455302020633084000008A200E62334
:100530000C243A302020583084000008A2000130FA
:1005400084070008A300E923142408001730FE00E4
:10055000FC017C087E0203190C2BFD01FF003030EA
:1005600084007D087F0203190A2B1A232C088407B4
:100570000008F9003030A8007D08A8022808840788
:100580000008A50028088402013084070008F8004C
:100590003030A8007D08A802280884070008A400BD
:1005A00028088402013084070008FB00013084071A
:1005B0000008FA000D2B78087A020318082B152B77
:1005C00079087B020318082B033084027B08800023
:1005D0003030A8007D08A80228088407240880007D
:1005E00028088402013084077A0880003030A8008F
:1005F0007D08A802280884072508800028088402AE
:100600000130840779088000013084077808800071
:10061000FD0AAF2AFC0AA92A080078087A02031901
:10062000DF2A122B031CE42A082B79087B0203190A
:10063000082BE02AAC01FD08031908000230A800CD
:1006400000307D07A80B212BAC0008008312031398
:10065000061186110800831203130611861508007F
:100660008312031306158611080083120313071162
:10067000871007100800831203130711871007144F
:100680000800831203130711871407100800831250
:1006900003130711871407140800831203130715A7
:1006A000871007100800831203130715871007141B
:1006B000080083120313071587140710080083121C
:1006C00003130715871407140800831203138712F6
:1006D0000712871108008312031387120712871568
:1006E000080083120313871207168711080083126C
:1006F0000313871207168715080083120313871642
:100700000712871108008312031387160712871533
:100710000800831203138716071687110800831237
:100720000313871607168715080083120313061292
:10073000831203138713071308008312031306128F
:10074000831203138713071708008312031306127B
:10075000831203138717071308008312031306126B
:100760008312031387170717080083120313061653
:10077000831203138713071308008312031306164B
:100780008312031387130717080083120313061637
:100790008312031387170713080083120313061627
:1007A0008312031387170717080064302202A20080
:1007B0000319022403110800A30803190800A20862
:1007C000031DA3030314643022020800AA01AB0135
:1007D000F72BA901AA01AB0103146430D523031C34
:1007E00002240319F52BA90AEE2B6430A207031487
:1007F0000A30A202AA0A0318F92BA207AA032208A8
:10080000AB000800A30803190800A208031DA303F6
:1008100003146430220208003030AA07AB072A080C
:1008200020202B08202008003030A907AA07AB079A
:10083000290820202A0820202B0820200800F41056
:1008400080302020F4143030A907AA07AB0729080C
:1008500020202A0820202B08202020302020633050
:1008600020206D3020200800831203138616061303
:1008700086130800831203138612061386170800D6
:1008800034247C243A247F2434240800861C462CFB
:100890008F018E01101486184B2C10100F08A00029
:1008A0000E08A1002008A4002108A50003110310D0
:1008B000A201A3015C2408006824031C6F2403190F
:1008C000662CA20AA208031979245C2CA20A08004B
:1008D00026082502A50003196F2403110800A408A7
:1008E00003190800A508031DA40303142608250204
:1008F0000800A201A30A08000000000008000A3056
:10090000A800A80B812C08000130F410202008005A
:10091000FA301620FA3016200800882488240800AF
:100920000030A700C924F41457302020653020205F
:100930006C302020633020206F3020206D3020204C
:100940006530202020302020743020206F3020207F
:100950004030A707C924F414483020204330202019
:1009600053302020523020203030202034302020BE
:10097000203020204D3020206F3020206430202077
:10098000753020206C3020206530202073302020EE
:100990000800271ACF2C8038F4102020080040309F
:0A09A000A7008038F41020200800A2
:02400E00313748
:00000001FF
